{
  "_format": "hh-sol-artifact-1",
  "contractName": "Operations",
  "sourceName": "contracts/Operations.sol",
  "abi": [
    {
      "inputs": [
        {
          "internalType": "uint256",
          "name": "a",
          "type": "uint256"
        },
        {
          "internalType": "uint256",
          "name": "b",
          "type": "uint256"
        }
      ],
      "name": "add",
      "outputs": [
        {
          "internalType": "uint256",
          "name": "",
          "type": "uint256"
        }
      ],
      "stateMutability": "pure",
      "type": "function"
    },
    {
      "inputs": [
        {
          "internalType": "uint256",
          "name": "n",
          "type": "uint256"
        }
      ],
      "name": "addAndCheckEvenOdd",
      "outputs": [
        {
          "internalType": "bool",
          "name": "",
          "type": "bool"
        }
      ],
      "stateMutability": "pure",
      "type": "function"
    },
    {
      "inputs": [
        {
          "internalType": "uint256",
          "name": "n",
          "type": "uint256"
        }
      ],
      "name": "addFibonacci",
      "outputs": [
        {
          "internalType": "uint256",
          "name": "",
          "type": "uint256"
        }
      ],
      "stateMutability": "pure",
      "type": "function"
    },
    {
      "inputs": [
        {
          "internalType": "uint256",
          "name": "a",
          "type": "uint256"
        },
        {
          "internalType": "uint256",
          "name": "b",
          "type": "uint256"
        }
      ],
      "name": "div",
      "outputs": [
        {
          "internalType": "uint256",
          "name": "",
          "type": "uint256"
        }
      ],
      "stateMutability": "pure",
      "type": "function"
    },
    {
      "inputs": [
        {
          "internalType": "uint256",
          "name": "n",
          "type": "uint256"
        }
      ],
      "name": "fibonacci",
      "outputs": [
        {
          "internalType": "uint256[]",
          "name": "",
          "type": "uint256[]"
        }
      ],
      "stateMutability": "pure",
      "type": "function"
    },
    {
      "inputs": [
        {
          "internalType": "uint256",
          "name": "num",
          "type": "uint256"
        }
      ],
      "name": "isEven",
      "outputs": [
        {
          "internalType": "bool",
          "name": "",
          "type": "bool"
        }
      ],
      "stateMutability": "pure",
      "type": "function"
    },
    {
      "inputs": [
        {
          "internalType": "uint256[]",
          "name": "numbers",
          "type": "uint256[]"
        }
      ],
      "name": "multiply",
      "outputs": [
        {
          "internalType": "uint256",
          "name": "",
          "type": "uint256"
        }
      ],
      "stateMutability": "pure",
      "type": "function"
    },
    {
      "inputs": [
        {
          "internalType": "uint256",
          "name": "a",
          "type": "uint256"
        },
        {
          "internalType": "uint256",
          "name": "b",
          "type": "uint256"
        }
      ],
      "name": "sub",
      "outputs": [
        {
          "internalType": "uint256",
          "name": "",
          "type": "uint256"
        }
      ],
      "stateMutability": "pure",
      "type": "function"
    }
  ],
  "bytecode": "0x608060405234801561001057600080fd5b50610ab5806100206000396000f3fe608060405234801561001057600080fd5b50600436106100885760003560e01c80639770cfc51161005b5780639770cfc51461014d5780639ef028b71461017d578063a391c15b146101ad578063b67d77c5146101dd57610088565b8063239de9f41461008d5780632a2e1320146100bd57806361047ff4146100ed578063771602f71461011d575b600080fd5b6100a760048036038101906100a291906105c9565b61020d565b6040516100b4919061074f565b60405180910390f35b6100d760048036038101906100d2919061060a565b61028b565b6040516100e49190610734565b60405180910390f35b6101076004803603810190610102919061060a565b6102a3565b6040516101149190610712565b60405180910390f35b61013760048036038101906101329190610633565b610438565b604051610144919061074f565b60405180910390f35b6101676004803603810190610162919061060a565b61044e565b604051610174919061074f565b60405180910390f35b6101976004803603810190610192919061060a565b6104d3565b6040516101a49190610734565b60405180910390f35b6101c760048036038101906101c29190610633565b6104f2565b6040516101d4919061074f565b60405180910390f35b6101f760048036038101906101f29190610633565b610508565b604051610204919061074f565b60405180910390f35b6000806001905060005b835181101561028157838181518110610259577f4e487b7100000000000000000000000000000000000000000000000000000000600052603260045260246000fd5b60200260200101518261026c919061087b565b9150808061027990610950565b915050610217565b5080915050919050565b60008060028361029b9190610999565b149050919050565b606060008267ffffffffffffffff8111156102e7577f4e487b7100000000000000000000000000000000000000000000000000000000600052604160045260246000fd5b6040519080825280602002602001820160405280156103155781602001602082028036833780820191505090505b50905060008060019050818360008151811061035a577f4e487b7100000000000000000000000000000000000000000000000000000000600052603260045260246000fd5b60200260200101818152505080836001815181106103a1577f4e487b7100000000000000000000000000000000000000000000000000000000600052603260045260246000fd5b6020026020010181815250506000600290505b8581101561042c57600082846103ca91906107f4565b905080858381518110610406577f4e487b7100000000000000000000000000000000000000000000000000000000600052603260045260246000fd5b60200260200101818152505082935080925050808061042490610950565b9150506103b4565b50829350505050919050565b6000818361044691906107f4565b905092915050565b60008061045a836102a3565b90506000805b82518110156104c8576104b3828483815181106104a6577f4e487b7100000000000000000000000000000000000000000000000000000000600052603260045260246000fd5b6020026020010151610438565b915080806104c090610950565b915050610460565b508092505050919050565b6000806104df8361044e565b90506104ea8161028b565b915050919050565b60008183610500919061084a565b905092915050565b6000818361051691906108d5565b905092915050565b600061053161052c8461078f565b61076a565b9050808382526020820190508285602086028201111561055057600080fd5b60005b85811015610580578161056688826105b4565b845260208401935060208301925050600181019050610553565b5050509392505050565b600082601f83011261059b57600080fd5b81356105ab84826020860161051e565b91505092915050565b6000813590506105c381610a68565b92915050565b6000602082840312156105db57600080fd5b600082013567ffffffffffffffff8111156105f557600080fd5b6106018482850161058a565b91505092915050565b60006020828403121561061c57600080fd5b600061062a848285016105b4565b91505092915050565b6000806040838503121561064657600080fd5b6000610654858286016105b4565b9250506020610665858286016105b4565b9150509250929050565b600061067b83836106f4565b60208301905092915050565b6000610692826107cb565b61069c81856107e3565b93506106a7836107bb565b8060005b838110156106d85781516106bf888261066f565b97506106ca836107d6565b9250506001810190506106ab565b5085935050505092915050565b6106ee81610909565b82525050565b6106fd81610915565b82525050565b61070c81610915565b82525050565b6000602082019050818103600083015261072c8184610687565b905092915050565b600060208201905061074960008301846106e5565b92915050565b60006020820190506107646000830184610703565b92915050565b6000610774610785565b9050610780828261091f565b919050565b6000604051905090565b600067ffffffffffffffff8211156107aa576107a9610a28565b5b602082029050602081019050919050565b6000819050602082019050919050565b600081519050919050565b6000602082019050919050565b600082825260208201905092915050565b60006107ff82610915565b915061080a83610915565b9250827fffffffffffffffffffffffffffffffffffffffffffffffffffffffffffffffff0382111561083f5761083e6109ca565b5b828201905092915050565b600061085582610915565b915061086083610915565b9250826108705761086f6109f9565b5b828204905092915050565b600061088682610915565b915061089183610915565b9250817fffffffffffffffffffffffffffffffffffffffffffffffffffffffffffffffff04831182151516156108ca576108c96109ca565b5b828202905092915050565b60006108e082610915565b91506108eb83610915565b9250828210156108fe576108fd6109ca565b5b828203905092915050565b60008115159050919050565b6000819050919050565b61092882610a57565b810181811067ffffffffffffffff8211171561094757610946610a28565b5b80604052505050565b600061095b82610915565b91507fffffffffffffffffffffffffffffffffffffffffffffffffffffffffffffffff82141561098e5761098d6109ca565b5b600182019050919050565b60006109a482610915565b91506109af83610915565b9250826109bf576109be6109f9565b5b828206905092915050565b7f4e487b7100000000000000000000000000000000000000000000000000000000600052601160045260246000fd5b7f4e487b7100000000000000000000000000000000000000000000000000000000600052601260045260246000fd5b7f4e487b7100000000000000000000000000000000000000000000000000000000600052604160045260246000fd5b6000601f19601f8301169050919050565b610a7181610915565b8114610a7c57600080fd5b5056fea26469706673582212205ed5f55eb6d17ada6db1aeb1a5dd65de68a570edb30a88af0aaa090b193c048164736f6c63430008010033",
  "linkReferences": {},
  "deployedLinkReferences": {}
}